:1000000027C541C540C53FC53EC53DC53CC53BC5EF
:100010003AC539C538C537C536C535C534C533C504
:1000200032C52CCB30C5A877A6E0F7435A3585E218
:1000300072978FB71A6287380D67C7BE4F3E20761A
:10004000378F68B7A9263F2B10E3307E900E850AC4
:1000500070510386400D4FEB3ECCD18735BDF50B7B
:100060005ED0F8F2D5E26C310CADFC21C378C1064C
:10007000C24C55E64A3448111EDAE71A84A096A706
:10008000E37FAF639CFA235B79C89EBAB2C92212A0
:100090004BB3A1B63249A2E189391066C5078F5426
:1000A000EA91CA3FF919F0D746BC281B61E82F6ACC
:1000B000AE9DF64E0914774DDB1F2E7B7CF143A3DA
:1000C00000B8138C85B9297588FDD2561C5097410C
:1000D000E53B60B5C064EE98D62D25A4AACD7DA8D9
:1000E00083C6ABBE4499263CCE9FBFD3CB767A7EE7
:1000F00082018A9A801D0EB05CD43862F430E08EA2
:1001000053B70257ACA6520A6D9265172433457255
:1001100074B1B4F75DED2CFF47375A90BBDF2A1658
:100120005995D9C4276773C768FEA5DD6B5F93D85F
:10013000EC053A8D6EFB3DA96936F394DEEF156F41
:100140008B9B080FDC81182004E471CFE92B425807
:1001500001A0A962D63F85A7B6D4FA15661709BDD6
:100160005D14342659729154064FF8B05B7493991C
:100170008CF245CDEA4EAD104AE5CAEEDFC66F9F60
:10018000888E02CC08A877946D21B128E43979963D
:10019000607181162EE678B9C4469A42AEB77C43A8
:1001A000B3221A86C2323D2D9CD229E9639BD131FC
:1001B000385E1E3641BB03182B3EBF6861FC52C03F
:1001C000DEE00A58135A00BE1C900E5312FDE26E78
:1001D000BACE2427447F87A3A1D55040E3F983F703
:1001E000C7A235C8DB19AB2F1125ED339E55E14869
:1001F000AF7384DA2AAA51EB9D95B2CBE77080FEEB
:100200004C6504EFC5F1C33AB4F55F2389DD30A531
:100210008BD3F6DC4D64D7F08FEC56375CA40D071A
:10022000768A2C0BB5D8C11FE83BF44B1B476C49B1
:10023000677B92CF757E20D97D3C977AD0056B0F76
:100240001DFB8298578DF36ABCACC9A6FFB8690C38
:100250004C4D72075A49338DA2AB463D630DA097B2
:10026000FFF0F5FAC0E9DB62E4E17443DC861829AB
:1002700037F406E2ED6F90481E2D1DEA739454DFAB
:1002800025F64727D91177C9841C5B5C5181A622CA
:100290003E2496C88AEC827C09B8454A57BB2F5049
:1002A000758E61708C6CAFD0FDB41BAEDEFE3BB5BD
:1002B00036BD55010E9C41565FB3260383BA134BDE
:1002C000CAC50AF860A5B9C7C39832FB12F9A7924C
:1002D000AA68F3787E05202102E8BFF2B0598FD2D8
:1002E000CB876515F11AB230ADEE58A38B661F2C83
:1002F000D75D1985A8E6D36BA10C91936A5E0B7943
:10030000E3DD004F3C896E7169A9AC40E59928C6D0
:10031000314E7ACD089E7DEF17FC88D8A46D4495A8
:10032000D1B7D49BBE2A34642BCF2EEB38CE23E03A
:100330003A3FF77B9F1053BC526716E7807604C4A0
:10034000B6C1C27F9ADAD53942149DB10F35D6CCE9
:10035000B9DA380CA29C091F06B1B6FD1A69233020
:10036000C4DE01D1F45829371C7DD5BFFFBDC8C9F3
:10037000CF65BE7B7897986708B32657F7FA40ADEC
:100380008E75A67CDB918B5199D4177A908DCE63B4
:10039000CB4EA0AB183A5B507F2174C1BBB8B7BA43
:1003A0000B359531599A4D04071E5A7613F3718314
:1003B000D08603A83942AA28E6E4D85DD3D06E6F70
:1003C00096FB5EBC56C25F859BE7AFD23B846AA7B3
:1003D00053C54449A5F936723D2CD91BA1F54F935D
:1003E0009D68474116CA2A4CA387D6E5192E771572
:1003F0006D70C0DFB20046EDC66C4360922DA9223D
:10040000458F3455AEA40A6632E0DC02ACE8208C9D
:1004100089624AFEEEC3E33CF17905E9F62733CC65
:10042000F29E11817E80108A829F480DD7B4FC2FE6
:10043000B5C7DD88146B2B54EA1D945CB0EF122411
:10044000CDEBE1E264733F0E5261253EF80F4BECB9
:10045000C00030F602493D106E20C9A62FFE2C2B9D
:10046000752E4526AB48A980FC04CCD3B5BAA33879
:10047000317D01D9A77B96B663694EF7DEE078CA75
:1004800050AA41916588E42185DA3A27BE1C3E4294
:100490005E17527F1F89246F8F5C67740E12878DE1
:1004A000E934ED73C4F8615B05DF594C9779831823
:1004B000A45595EBBD53F5F15766469FB28109519E
:1004C000862216DD23937629C2D71DD4BF363FEA94
:1004D0004B1132B9625460D66D439A0D929CB0EFC5
:1004E000586C9D772D70FAF3B30BE2407EF48AE5E9
:1004F0008C3C5671D164E1820ACB131590EC0399C0
:10050000AF145D0F334A94A5A8351BE36AC628FFD4
:100510004DE72584AC08AEC5A22AB8370C7AA0C333
:10052000CEAD061A9E8BFBD5D0C11ED0B49BB14474
:10053000F247C768CF72BB4F5AF9DC6BDBD2E87C5D
:10054000C8EE98A1E6D839075FFD8E19B73BBCCD40
:100550007CE38173B211BF6F2098FE7596EF6CDA61
:1005600050E109725445BA34805BED3E532C87A4A8
:1005700057F3333F3CB767B4A325604F076B1B4766
:10058000150FE40AEAD1327836498D4BD2BCA5DC8E
:100590001D0D4DCD9A825FFC9465BEE2F4C91E44E8
:1005A000CB9E0C64712663B314E840708A0E194226
:1005B0006DAC88105CDF41A9ADE5FB74CCD5068E2F
:1005C0005986CE1F3D76E08FB977277BA6D829D3F1
:1005D000ECB813F7FAC3516ADE4A5AEBC28B2348D0
:1005E00092CF62A899F8D02E856143C8BDF00593DB
:1005F000CA4EF17D30FDC469662F08B152F921E67B
:100600007A2BDD3984FFC091D637D47F2D9B5DA135
:100610003B6EB5C54604F590EE7E831C0356B6AA24
:100620000017013555790B12BB1A31E7022816C1A4
:10063000F6A2DB189C89683897ABC72AD73AF2C66E
:10064000244CB058A0225E9DD9A7E9AEAF8C959FEF
:1006500028B720D7B030C30919C067D6003C7EE761
:10066000E9F4085AF8B82E05A6259E5CD8150DE1C8
:10067000F611546BCD2146665E84AD06382944C51B
:10068000A2CEF1AAC1407186B5EFFC36A8CB0A48CC
:10069000274564A3AF8CB2C69F0789DC17D349797D
:1006A000FBFE1DD0B9884352BC01782B7D94C70E48
:1006B000DEA5D59BCCF7617AC274813903AB96A0D5
:1006C00037BD2D72753FC9D48E6FF98DED62DB1C7D
:1006D000DF04AC1B6C144B63D0BFB482EC7B1A59A3
:1006E00092D21060B63D5FE6806E70C4F235D97C60
:1006F000EEE541A45B50DDBB4CF31F9D5D575551AA
:1007000097E358424D9C73BAC877316926AEEA8A9E
:10071000DA22B38756FA930B341633E8E453BEA9B2
:10072000B13A3EF5906ACF3B12FD8F9AA747919957
:10073000EB0F24FF2318854E7F0CE0A1D2D12C2A89
:100740004A024F1E95688B98836D76CA6532132FC7
:10075000C3829AA4BA8160373435FC80A85165679A
:10076000ED305F10D34A272F13B92AD2CCE1EFAE78
:10077000EBBEF4BDCF43B3C58884B7DD3940CE4866
:100780006D9B72617EE7A14E532E773BE2C9362204
:100790001B6E73B103B24C87A9D44D0FD8156CAA48
:1007A00018F649575DFB7A149463A011B09EDE05DC
:1007B00046C8EE47DBDC24899C919729E97BC10779
:1007C0001EB8FDFEACC662984FF179E0E86B785632
:1007D000B68D045086CA6F20E6EAE576171C747F52
:1007E000BC0D2C85F76696E48B753F4BD938AF7CF2
:1007F000DA0B832D3132A2F51D594145BF3C1FF85C
:10080000F98AD016256912999D2195AB01A6D7B515
:10081000C07DFF580E3A92D155E3089FD63E528EC6
:10082000FAA3C702CDDF8F64198CF3A70C5E0A6AA6
:1008300009F0935B42C20623EC71ADB4CBBB7028C8
:10084000D51A5C33685A004490A5C4263D2BF25457
:1008500096ADDA1FED33E18169080D0ADB35779A31
:1008600064D1FC78AA1BD067A0DDFA6C63710584A3
:10087000176A894F667FC65055926FBDE7D24072A6
:100880008DBBEC06428AE4889D7E7A822713411A4A
:10089000AFC8A476B4C2FE6D1CD96130B37CEAF750
:1008A000290FF23B51C1DE5FE52A2F990B5DA32B87
:1008B0004AAB95A5D35856EE283100CC1546CAE66A
:1008C00086383C65F5E39FD65B094983702D53A9B3
:1008D0007DE2C4AC8E5EB825F4B957F3F16847B237
:1008E000A25920CE34795C900E1EBED52223B1C908
:1008F0001862162E913E078FD83F933DD49BDF851B
:1009000021FB117497C7D7DC4C194598E943024B7A
:10091000BCC3049C6BF07552A726F6C5BACFB0B71E
:10092000AE5AA1BF038B80126E0CEBF9C04424EFCA
:1009300010F8A88CE87BFF9E2CCD603687B594A676
:1009400054733A144E011DB6FD37484D39CBE03291
:100950000000000000000000000000000000000097
:100960000000000000000000000000000000000087
:100970000000000000000000000000000000000077
:100980000000000000000000000000000000000067
:100990000000000000000000000000000000000057
:1009A0000000000000000000000000000000000047
:1009B0000000000000000000000000000000000037
:1009C0000000000000000000000000000000000027
:1009D0000000000000000000000000000000000017
:1009E0000000000000000000000000000000000007
:1009F00000000000000000000000000000000000F7
:100A000000000000000000000000000000000000E6
:100A100000000000000000000000000000000000D6
:100A200000000000000000000000000000000000C6
:100A300000000000000000000000000000000000B6
:100A400000000000000000000000000000000000A6
:100A500011241FBECFE5D4E0DEBFCDBF10E0A0E67D
:100A6000B0E0E6EFFDE102C005900D92A039B107BC
:100A7000D9F711E0A0E9B0E001C01D92A43DB10793
:100A8000E1F702D0B6C9BCCA1F93A898A998A09A4A
:100A9000A19A3AD980E090E097D98093660080913E
:100AA0006600833018F082E08093660080E690E074
:100AB00067E670E045E556E004D381E08093A50049
:100AC0002FE088E190E00FB6F894A89581BD0FBEA5
:100AD00021BD13E08091A500823011F41093A50090
:100AE000BFD69091D201892F8295817080939A0010
:100AF000892F869586958695817080939B00892F96
:100B0000829586958695817080939C00892F869525
:100B10008695817080939D00892F8295869581703E
:100B20008093A100991F9927991F9093A2009091FB
:100B3000D301892F8695817080939E009170909348
:100B40009F001092A3001092A40080916600882359
:100B500049F080916600823029F030E020E090E09A
:100B600080E011C08091D301382F369536953170D1
:100B7000282F2695269526952170982F929591706D
:100B80008295869581703093980020939900909378
:100B900096008093970080916600882349F08091A9
:100BA0006600813029F020E030E080E090E018C05D
:100BB0004091D30142FD03C020E030E002C021E8B3
:100BC0003FEF43FF02C02FE730E044FD03C080E069
:100BD00090E002C081E89FEF45FF02C08FE790E000
:100BE00080939000209391001092920010929300B5
:100BF00080919F00882309F453C080919A00882334
:100C000009F44EC080919B00882309F449C080916B
:100C1000A6009091A70001969093A7008093A6004C
:100C2000845F914008F456CF8091660090E0019671
:100C300063E070E089D8809366006091660080E090
:100C400090E0CAD8A89880E197E228EC30E0F9015A
:100C50003197F1F70197D9F720E048EC50E011C047
:100C6000A89A80ED97E0FA013197F1F70197D9F74B
:100C7000A89880ED97E0FA013197F1F70197D9F73D
:100C80002F5F80916600821758F72DE088E190E091
:100C90000FB6F894A89581BD0FBE21BDF894FFCF83
:100CA0001092A7001092A60015CFDF93CF93CDB777
:100CB000DEB728970FB6F894DEBF0FBECDBFA8955C
:100CC0008091A500823020F482E08093A500A89A4C
:100CD0008091D001813009F0DAC019821A821B821A
:100CE0001C828FEF8D838E831F82188680919000E7
:100CF00064E01DD8382F305E3F73398380919100B6
:100D000064E015D8282F2195205E2F732A838091C7
:100D1000920068E00CD8992787FD909540968871DD
:100D2000907043E0880F991F4A95E1F7382B39837B
:100D30008091920068E0FBD7992787FD9095867097
:100D4000907035E0880F991F3A95E1F7282B2A8398
:100D500080919200509193002091940068E0E7D731
:100D6000482F479544274795852F68E0E0D7819520
:100D7000805F8F71482B26952695269530E0287147
:100D80003070220F331F220F331F422B4B83809171
:100D90009400909195009695969596958695869552
:100DA00086958295880F807E892B8C838091970011
:100DB000882311F08FE78D8380919900882319F0A3
:100DC0008D818F7B8D838091A100882319F08D8187
:100DD0008F7D8D8380919E00882319F08D818F7E79
:100DE0008D838091A000882319F08D81877F8D836A
:100DF00080919F00882319F08D818B7F8D83809156
:100E0000A200882319F08D818D7F8D838091A300AE
:100E1000882319F08E818F778E8380919B008823A1
:100E200019F08E818F7B8E8380919D00882319F02D
:100E30008E818F7D8E8380919A00882319F08E8118
:100E40008F7E8E8380919C00882319F08E81877F0E
:100E50008E838091A400882319F08E818B7F8E83EE
:100E600080919600882319F08E818D7F8E838091EA
:100E70009800882319F08E818E7F8E831F821886BA
:100E80008D818E7F8E3F09F0E1C08E818DC0809173
:100E9000D001833009F0DEC08091900080588983B2
:100EA0008091920080588A83809191009FE7292F3A
:100EB000281B2B8380919300292F281B2C83809142
:100EC00094008D83809195008E838FEF8F83888728
:100ED0008091970081119F8380919900882319F058
:100EE0008F818F7B8F838091A100882319F08F8160
:100EF0008F7D8F8380919E00882319F08F818F7E54
:100F00008F838091A000882319F08F81877F8F8342
:100F100080919F00882319F08F818B7F8F83809130
:100F2000A200882319F08F818D7F8F838091A30089
:100F3000882319F088858F77888780919B00882384
:100F400019F088858F7B888780919D00882319F010
:100F500088858F7D888780919A00882319F08885FD
:100F60008F7E888780919C00882319F08885877FF1
:100F700088878091A400882319F088858B7F8887D3
:100F800080919600882319F088858D7F88878091CD
:100F90009800882319F088858E7F88878F818E7FBF
:100FA0008E3F09F053C088858F3F09F04FC0809174
:100FB000900087FD06C08091900080320CF046C002
:100FC0000AC080919000992787FD90959095819512
:100FD0009F4F8097DCF58091910087FD05C080913F
:100FE000910080329CF50AC080919100992787FD7D
:100FF0009095909581959F4F809744F580919200B0
:1010000087FD05C080919200803204F50AC080916E
:101010009200992787FD9095909581959F4F809795
:10102000ACF48091930087FD05C0809193008032DD
:101030006CF40AC080919300992787FD9095909554
:1010400081959F4F809714F4A99801C0A99ACE0169
:10105000019670D028960FB6F894DEBF0FBECDBFB4
:10106000CF91DF9108951092D1001092D000880F97
:1010700082B985E486BF78940895882311F085ECC1
:1010800001C085E886BF0895282F30E070E088E031
:1010900090E0861B970BA90102C0440F551F8A954B
:1010A000E2F7CA0102C0359527956A95E2F7822BCF
:1010B0000895883028F4E091A800F091A9000995DE
:1010C0000895AD98AC985093A9004093A800109251
:1010D000C201DC012AEF30E08D91F901EE52FF4FA1
:1010E00080832F5F3F4F81E020303807A9F7DB0175
:1010F00020E230E08D91F901EE52FF4F80832F5FA7
:101100003F4F26323105B1F7AB98A39A88E893E1B7
:1011100028EC30E0F9013197F1F70197D9F71092F7
:10112000D1001092D00084EA82B985E486BF789419
:10113000AB9A0895A2EDB0E0FC0188E001900D9219
:101140008150E1F708952F923F924F925F926F92F4
:101150007F928F929F92AF92BF92CF92DF92EF9247
:10116000FF920F931F93DF93CF93CDB7DEB76897AE
:101170000FB6F894DEBF0FBECDBF46E2642E40E04E
:10118000742E882437E0232E312C2C0E3D1E28E0AF
:10119000422E512CCAC084918D933196A215B3056D
:1011A000D1F780E090E0FC01E655FF4FE081F0E0F0
:1011B000E05BFF4FE491ADE0B0E0AC0FBD1FA80FC6
:1011C000B91FEC9301968A30910569F7AA88CF84FC
:1011D00029812A2530E04C2D477050E09E88B9883F
:1011E000C201841B950BB90102C0660F771F8A9557
:1011F000E2F7CB0102C0359527954A95E2F7822B9D
:1012000089198B258F83EE84DD842A812E2530E099
:101210004D2D477050E0AC89C201841B950BF9013C
:1012200002C0EE0FFF1F8A95E2F7CF0102C035958D
:1012300027954A95E2F7822B8A198A278887EB89B6
:101240002B812E2730E00D89077010E0B201601B62
:10125000710BC901062E02C0880F991F0A94E2F78C
:10126000002E02C0359527950A94E2F7822B8C193F
:101270008D2589872C812B2530E04A2F4770842FBC
:1012800090E0988F8F8BD888C2014F89588D841B2E
:10129000950BA90102C0440F551F8A95E2F7CA01B8
:1012A0000F8802C0359527950A94E2F7822B8D1995
:1012B0008C258A878D81E826FF24E770F0E0C20143
:1012C0008E1B9F0B970102C0220F331F8A95E2F7F6
:1012D000C90102C0F594E794EA95E2F78E298D19C9
:1012E0008B258B878E81A827B0E0AD0102C0440F0B
:1012F000551F6A95E2F7BA0102C0B595A7950A9500
:10130000E2F76A2B6A1969256C87C10164EB70E00A
:1013100046E050E04CD5009761F0839466E070E0C1
:10132000660E771E77E0871621F0DE011196F30135
:1013300032CF282D30E02F5F3F4F522F442780912E
:10134000B800FA01E80FF11DE05BFF4F94912F5FA9
:101350003F4F322F22278091AD00F901E80FF11D98
:10136000E05BFF4FE491E927E093BA008091B6007B
:10137000FA01E80FF11DE05BFF4F94918091AF00FF
:10138000F901E80FF11DE05BFF4FE491E927E093DD
:10139000BB008091B900FA01E80FF11DE05BFF4F3F
:1013A00094918091B100F901E80FF11DE05BFF4FCE
:1013B000E491E927E093BC008091B400FA01E80FC2
:1013C000F11DE05BFF4F94918091AC00F901E80FB3
:1013D000F11DE05BFF4FE491E927E093BD008091B0
:1013E000B500FA01E80FF11DE05BFF4F9491809189
:1013F000AE00F901E80FF11DE05BFF4FE491E92732
:10140000E093BE008091B700FA01E80FF11DE05BA8
:10141000FF4F94918091B300F901E80FF11DE05B5B
:10142000FF4FE491E927E093BF008091AA00FA0101
:10143000E80FF11DE05BFF4F94918091B000F9013E
:10144000E80FF11DE05BFF4FE491E927E093C00056
:101450008091AB00FA01E80FF11DE05BFF4F949122
:101460008091B200F901E80FF11DE05BFF4FE491BC
:10147000E927E093C1008091B400FA01E80FF11D63
:10148000E05BFF4F94918091AB00F901E80FF11DF3
:10149000E05BFF4FE491E927E093C2008091B9003F
:1014A000FA01E80FF11DE05BFF4F94918091AE00CF
:1014B000F901E80FF11DE05BFF4FE491E927E093AC
:1014C000C3008091B700FA01E80FF11DE05BFF4F08
:1014D00094918091AA00F901E80FF11DE05BFF4FA4
:1014E000E491E927E093C4008091B600FA01E80F87
:1014F000F11DE05BFF4F94918091B300F901E80F7B
:10150000F11DE05BFF4FE491E927E093C500809176
:10151000B800FA01E80FF11DE05BFF4F9491809154
:10152000B100F901E80FF11DE05BFF4FE491E927FD
:10153000E093C6008091B500FA01E80FF11DE05B71
:10154000FF4F94918091B200F901E80FF11DE05B2B
:10155000FF4FE491E927E093C7008091AD00FA01C5
:10156000E80FF11DE05BFF4F94918091AF00F9010E
:10157000E80FF11DE05BFF4FE491E927E093C8001D
:101580008091AC00480F511D405B5F4FFA01949170
:101590008091B000280F311D205B3F4FF9018491ED
:1015A00089278093C90068960FB6F894DEBF0FBEF6
:1015B000CDBFCF91DF911F910F91FF90EF90DF9002
:1015C000CF90BF90AF909F908F907F906F905F90E3
:1015D0004F903F902F900895982F80548630A0F41C
:1015E00020E430E049E450E0FA01E21BF30BD901BA
:1015F000AE52BF4F8C91E655FF4F80832F5F3F4F18
:101600002634310589F70895892F86548630C8F429
:10161000809118018093AD00809119018093AC00F6
:1016200080911A018093AB0080911B018093AA00E6
:1016300080911C018093B90080911D018093B800B6
:101640000895892F8C548430C0F480911E018093BA
:10165000B70080911F018093B60080912001809394
:10166000B500809121018093B400892F90E0860F0E
:10167000911D8035910509F466DD08951F920F9242
:101680000FB60F9211242F933F934F935F936F9355
:101690007F938F939F93AF93BF93EF93FF9381B10A
:1016A00090E0887F907080399105E9F1813991054A
:1016B000D4F480379105A1F18137910544F4803647
:1016C000910571F18836910509F0B7C029C08038BD
:1016D000910549F18838910509F4AFC08837910523
:1016E00009F0ABC01DC0803B910509F467C0813B88
:1016F00091054CF4803A910509F455C0883A91055A
:1017000009F09BC05BC0803C910509F494C0883C03
:10171000910509F490C0883B910509F08EC055C031
:101720001092CA0088C08091CA00882381F123B139
:101730008091C2018A3A19F58091D0009091D10030
:10174000803F9105E1F0A091D000B091D100E091EF
:10175000D000F091D100E770F070EE53FF4F808120
:10176000E091D000F091D100E770F070E654FF4FA7
:1017700090818227890FAE52BF4F8C934EC0E0916B
:10178000D000F091D100EE52FF4F208346C083B1CC
:1017900090E09093D1008093D00081E08093CA00C4
:1017A0001092CB0048C08091D0009091D100209140
:1017B000CB006091CB00821B0FDF3DC08091D00039
:1017C0009091D10076DC1092CB008091C2018A3AD0
:1017D000E1F4E091D000F091D100EE52FF4F808112
:1017E000E091D000F091D100E770F070E654FF4F27
:1017F0002081E091D000F091D100E770F070EE53BD
:10180000FF4F9081821B892707C0E091D000F091A3
:10181000D100EE52FF4F808183B98091D00090912A
:10182000D10001969093D1008093D0008091CB009D
:101830008F5F8093CB0085EC01C085E886BFFF9168
:10184000EF91BF91AF919F918F917F916F915F9138
:101850004F913F912F910F900FBE0F901F901895B1
:10186000DF92EF92FF920F931F93DF93CF93CDB749
:10187000DEB728970FB6F894DEBF0FBECDBFDE01EE
:101880001196E7E8F0E088E001900D928150E1F7D1
:1018900080E197E20197F1F7939AF8948E010F5F38
:1018A0001F4FF8E0DF2EE9E0EE2EF12CEC0EFD1ECE
:1018B00070B380B320B340B3E0B3A0B360B3669518
:1018C000669566956795662767957170672B86950F
:1018D000869590E081709070880F991F682B2295F3
:1018E0002F7030E021703070220F331F220F331F12
:1018F000622B42954695477050E04170507023E04E
:10190000440F551F2A95E1F7642BE695F0E0E1704E
:10191000F07094E0EE0FFF1F9A95E1F76E2BA29501
:10192000A695A695A370B0E0A170B07085E0AA0F4F
:10193000BB1F8A95E1F76A2BF80161938F0182B38F
:101940008D2582BBEE15FF0509F0B2CF78948A8110
:10195000082F10E020E0C8018C709070892B09F4EA
:1019600021E08091D2018E7F822B8093D20180FF73
:10197000C1C020E08E8190E083709070892B09F4C3
:1019800021E0220F4091D201497FC801A4E0969541
:101990008795AA95E1F761E070E086279727817027
:1019A000880F880F422B482B8981A82FB0E09D011A
:1019B000F4E036952795FA95E1F726273727217029
:1019C000220F220F220F477ECD01E5E096958795E5
:1019D000EA95E1F78627972781708295807F422BD1
:1019E000482B4093D20141FD03C080E090E005C048
:1019F0008F818695869580958170982F91709295AC
:101A0000990F907E8091D2018F7D892B8093D20196
:101A100081FD03C080E090E004C08F8186958095B1
:101A20008170982F91709295990F990F907C809169
:101A3000D2018F7B892B8093D20181FD03C080E08E
:101A400090E003C08F818095817087958827879566
:101A5000E091D201EF77E82BE093D20161E070E0F2
:101A6000AD01462757274170440F440F2091D30101
:101A7000237FCD0196958795862797278170880FBC
:101A8000880F880F242B282BB695A795B695A79578
:101A9000CD018627972781708295807F2F7CB69510
:101AA000A795A627B7273A2F31703295330F307E8E
:101AB000282B232B85E0169507958A95E1F70627B5
:101AC0001727802F81702E7F282B2093D301E1FDD3
:101AD00003C080E090E006C08F818695869586954C
:101AE00080958170982F9170990F8091D3018D7F8F
:101AF000892B05C01092D2018091D301807C809304
:101B0000D30128960FB6F894DEBF0FBECDBFCF919C
:101B1000DF911F910F91FF90EF90DF9008959091CA
:101B2000CC0081E098279093CC00992311F0939AF0
:101B300001C093988AE18A95F1F78091CD008823BE
:101B400009F0DEC0992309F496C08091CE00882365
:101B500009F486C08091CF008823C9F180B38295B3
:101B60008F7021E030E0822781708295880F807E1F
:101B70009091D2019F7D982B9093D20180B386954E
:101B80008695822781708295880F880F807C9F7B45
:101B9000982B9093D20180B38227879588278795C9
:101BA0009F77982B9093D20180B38295869587700A
:101BB00082278170880F9091D3019D7F982B9093FD
:101BC000D3011092CF0082E08093CD00089580B3BE
:101BD000869521E030E082278170880F880F880F7A
:101BE0009091D201977F982B9093D20180B38295E8
:101BF000869586958370822781708295807F9F7EEF
:101C0000982B9093D20180B382278170880F880F20
:101C10009091D3019B7F982B9093D30180B38695AD
:101C2000869582278170880F880F880F977F982B61
:101C30009093D30180B382958F70822781708295B3
:101C4000807F9F7E982B9093D30180B38295869559
:101C50008770822781708295880F807E9F7D4CC01F
:101C60008091D20181708093D2018091D301807CD8
:101C70008093D301089580B382958F7080FF03C055
:101C800080E090E006C080B382958695877080954D
:101C90008170282F8093CE00982F91708091D2016F
:101CA0008E7F892B8093D201809B03C080E090E0DF
:101CB00005C080B386958695809581708093CF000E
:101CC000222309F18823F9F490B3969521E030E0BE
:101CD00092279170990F990F8091D2018B7F892B58
:101CE0008093D20180B382958695869583708227F2
:101CF00081709091D3019E7F982B9093D30108958A
:101D000081508093CD000895939A8B9A88988A98F1
:101D10008C988D9889988E98909A929A949A959A80
:101D2000919A969A1092D3011092D201089587FB4E
:101D3000082E062687FD819567FD619518D00EF463
:101D4000919507FC8195089597FB092E07260AD0E7
:101D500077FD04D018D006D000201AF47095619554
:101D60007F4F0895F6F7909581959F4F0895991BA1
:101D700079E004C0991F961708F0961B881F7A9582
:101D8000C9F780950895AA1BBB1B51E107C0AA1F84
:101D9000BB1FA617B70710F0A61BB70B881F991F0C
:101DA0005A95A9F780959095BC01CD010895FB0146
:101DB000DC0104C08D910190801921F44150504004
:101DC000C8F7881B990B0895E199FECF9FBB8EBB86
:101DD000E09A99278DB30895262FE199FECF9FBBF6
:101DE0008EBB2DBB0FB6F894E29AE19A0FBE019616
:061DF0000895F894FFCFF6
:101DF6000000A42001010200000000000000000015
:101E060000000000000000000000000000000000CC
:101E160000000000000000FFFFFFFFFFFFFFFF00C4
:040000050080009FD8
:00000001FF
